{
  "abi": [
    {
      "inputs": [
        {
          "internalType": "address",
          "name": "_leverageStrategyAddress",
          "type": "address"
        }
      ],
      "stateMutability": "nonpayable",
      "type": "constructor"
    },
    {
      "inputs": [],
      "name": "AURA_DepositFailed",
      "type": "error"
    },
    {
      "inputs": [],
      "name": "DepositCancellationNotAllowed",
      "type": "error"
    },
    {
      "inputs": [],
      "name": "ERC20_ApprovalFailed",
      "type": "error"
    },
    {
      "inputs": [],
      "name": "ERC20_TransferFailed",
      "type": "error"
    },
    {
      "inputs": [],
      "name": "ERC20_TransferFromFailed",
      "type": "error"
    },
    {
      "inputs": [],
      "name": "InvalidFee",
      "type": "error"
    },
    {
      "inputs": [],
      "name": "InvalidInput",
      "type": "error"
    },
    {
      "inputs": [],
      "name": "InvalidInvest",
      "type": "error"
    },
    {
      "inputs": [],
      "name": "InvalidUnwind",
      "type": "error"
    },
    {
      "inputs": [],
      "name": "InvestmentsOverflow",
      "type": "error"
    },
    {
      "inputs": [
        {
          "internalType": "address",
          "name": "owner",
          "type": "address"
        }
      ],
      "name": "OwnableInvalidOwner",
      "type": "error"
    },
    {
      "inputs": [
        {
          "internalType": "address",
          "name": "account",
          "type": "address"
        }
      ],
      "name": "OwnableUnauthorizedAccount",
      "type": "error"
    },
    {
      "inputs": [],
      "name": "UnknownExecuter",
      "type": "error"
    },
    {
      "inputs": [],
      "name": "UseOverLoadedRedeemFunction",
      "type": "error"
    },
    {
      "inputs": [],
      "name": "ZeroDepositNotAllowed",
      "type": "error"
    },
    {
      "inputs": [],
      "name": "ZeroInvestmentNotAllowed",
      "type": "error"
    },
    {
      "anonymous": false,
      "inputs": [
        {
          "indexed": true,
          "internalType": "address",
          "name": "previousOwner",
          "type": "address"
        },
        {
          "indexed": true,
          "internalType": "address",
          "name": "newOwner",
          "type": "address"
        }
      ],
      "name": "OwnershipTransferred",
      "type": "event"
    },
    {
      "inputs": [],
      "name": "AURA",
      "outputs": [
        {
          "internalType": "address",
          "name": "",
          "type": "address"
        }
      ],
      "stateMutability": "view",
      "type": "function"
    },
    {
      "inputs": [],
      "name": "BAL",
      "outputs": [
        {
          "internalType": "address",
          "name": "",
          "type": "address"
        }
      ],
      "stateMutability": "view",
      "type": "function"
    },
    {
      "inputs": [],
      "name": "D2D",
      "outputs": [
        {
          "internalType": "contract IERC20",
          "name": "",
          "type": "address"
        }
      ],
      "stateMutability": "view",
      "type": "function"
    },
    {
      "inputs": [],
      "name": "D2D_USDC_BPT",
      "outputs": [
        {
          "internalType": "contract IERC20",
          "name": "",
          "type": "address"
        }
      ],
      "stateMutability": "view",
      "type": "function"
    },
    {
      "inputs": [],
      "name": "USDC",
      "outputs": [
        {
          "internalType": "contract IERC20",
          "name": "",
          "type": "address"
        }
      ],
      "stateMutability": "view",
      "type": "function"
    },
    {
      "inputs": [],
      "name": "WETH",
      "outputs": [
        {
          "internalType": "address",
          "name": "",
          "type": "address"
        }
      ],
      "stateMutability": "view",
      "type": "function"
    },
    {
      "inputs": [],
      "name": "checkAndReturnCalldata",
      "outputs": [
        {
          "internalType": "bool",
          "name": "flag",
          "type": "bool"
        },
        {
          "internalType": "bytes",
          "name": "cdata",
          "type": "bytes"
        }
      ],
      "stateMutability": "view",
      "type": "function"
    },
    {
      "inputs": [],
      "name": "checkBalanceAndReturnCalldata",
      "outputs": [
        {
          "internalType": "bool",
          "name": "flag",
          "type": "bool"
        },
        {
          "internalType": "bytes",
          "name": "cdata",
          "type": "bytes"
        }
      ],
      "stateMutability": "view",
      "type": "function"
    },
    {
      "inputs": [],
      "name": "checkCondition",
      "outputs": [
        {
          "internalType": "bool",
          "name": "",
          "type": "bool"
        }
      ],
      "stateMutability": "view",
      "type": "function"
    },
    {
      "inputs": [],
      "name": "crvUSD",
      "outputs": [
        {
          "internalType": "contract IcrvUSD",
          "name": "",
          "type": "address"
        }
      ],
      "stateMutability": "view",
      "type": "function"
    },
    {
      "inputs": [],
      "name": "investThreshold",
      "outputs": [
        {
          "internalType": "uint256",
          "name": "",
          "type": "uint256"
        }
      ],
      "stateMutability": "view",
      "type": "function"
    },
    {
      "inputs": [],
      "name": "leverageStrategy",
      "outputs": [
        {
          "internalType": "contract LeverageStrategy",
          "name": "",
          "type": "address"
        }
      ],
      "stateMutability": "view",
      "type": "function"
    },
    {
      "inputs": [],
      "name": "owner",
      "outputs": [
        {
          "internalType": "address",
          "name": "",
          "type": "address"
        }
      ],
      "stateMutability": "view",
      "type": "function"
    },
    {
      "inputs": [],
      "name": "reinvestThreshold",
      "outputs": [
        {
          "internalType": "int256",
          "name": "",
          "type": "int256"
        }
      ],
      "stateMutability": "view",
      "type": "function"
    },
    {
      "inputs": [],
      "name": "renounceOwnership",
      "outputs": [],
      "stateMutability": "nonpayable",
      "type": "function"
    },
    {
      "inputs": [
        {
          "internalType": "uint256",
          "name": "amount",
          "type": "uint256"
        }
      ],
      "name": "setInvestThreshold",
      "outputs": [],
      "stateMutability": "nonpayable",
      "type": "function"
    },
    {
      "inputs": [
        {
          "internalType": "int256",
          "name": "newThreshold",
          "type": "int256"
        }
      ],
      "name": "setReinvestThreshold",
      "outputs": [],
      "stateMutability": "nonpayable",
      "type": "function"
    },
    {
      "inputs": [
        {
          "internalType": "int256",
          "name": "newThreshold",
          "type": "int256"
        }
      ],
      "name": "setUnwindThreshold",
      "outputs": [],
      "stateMutability": "nonpayable",
      "type": "function"
    },
    {
      "inputs": [
        {
          "internalType": "address",
          "name": "newOwner",
          "type": "address"
        }
      ],
      "name": "transferOwnership",
      "outputs": [],
      "stateMutability": "nonpayable",
      "type": "function"
    },
    {
      "inputs": [],
      "name": "unwindThreshold",
      "outputs": [
        {
          "internalType": "int256",
          "name": "",
          "type": "int256"
        }
      ],
      "stateMutability": "view",
      "type": "function"
    },
    {
      "inputs": [],
      "name": "wstETH",
      "outputs": [
        {
          "internalType": "contract IERC20",
          "name": "",
          "type": "address"
        }
      ],
      "stateMutability": "view",
      "type": "function"
    }
  ],
  "bytecode": {
    "object": "0x6080604052670de0b6b3a764000060035567016345785d8a0000600455348015610027575f80fd5b50604051610acc380380610acc833981016040819052610046916100e9565b338061006b57604051631e4fbdf760e01b81525f600482015260240160405180910390fd5b6100748161009a565b50600180546001600160a01b0319166001600160a01b0392909216919091179055610116565b5f80546001600160a01b038381166001600160a01b0319831681178455604051919092169283917f8be0079c531659141344cd1fd0a4f28419497f9722a3daafe3b4186f6b6457e09190a35050565b5f602082840312156100f9575f80fd5b81516001600160a01b038116811461010f575f80fd5b9392505050565b6109a9806101235f395ff3fe608060405234801561000f575f80fd5b5060043610610132575f3560e01c806389a30271116100b45780639c7e40a9116100795780639c7e40a91461027e578063ad5c464814610287578063beeadf16146102a2578063c7af71da146102bd578063f2fde38b146102d5578063f6e5807a146102e8575f80fd5b806389a30271146102075780638da5cb5b146102225780638e24dcea1461023257806392c4b61d1461024d5780639bec828814610263575f80fd5b806357beada2116100fa57806357beada2146101b15780635af7282b146101c4578063715018a6146101db57806381296f51146101e3578063842febba146101ec575f80fd5b80631f4a012b1461013657806333d1dbe31461014b5780633829aea31461017b5780634aa07e6414610196578063564acb9614610136575b5f80fd5b610149610144366004610874565b6102f0565b005b60015461015e906001600160a01b031681565b6040516001600160a01b0390911681526020015b60405180910390f35b61015e73c0c293ce456ff0ed870add98a0828dd4d2903dbf81565b61015e737f39c581f595b53c5cb19bd0b3f8da6c935e2ca081565b6101496101bf366004610874565b6102fd565b6101cd60045481565b604051908152602001610172565b61014961030a565b6101cd60025481565b61015e7343d4a3cd90ddd2f8f4f693170c9c8098163502ad81565b61015e73a0b86991c6218b36c1d19d4a2e9eb0ce3606eb4881565b5f546001600160a01b031661015e565b61015e7327c9f71cc31464b906e0006d4fcbc8900f48f15f81565b61025561031d565b60405161017292919061088b565b61015e73f939e0a03fb07f59a73314e73794be0e57ac1b4e81565b6101cd60035481565b61015e73dfcea9088c8a88a76ff74892c1457c17dfeef9c181565b61015e73ba100000625a3754423978a60c9317c58a424e3d81565b6102c5610638565b6040519015158152602001610172565b6101496102e33660046108e0565b6106b9565b6102556106fb565b6102f86107f9565b600255565b6103056107f9565b600355565b6103126107f9565b61031b5f610825565b565b5f60605f60015f9054906101000a90046001600160a01b03166001600160a01b0316638fe205a86040518163ffffffff1660e01b81526004016040805180830381865afa158015610370573d5f803e3d5ffd5b505050506040513d601f19601f82011682018060405250810190610394919061090d565b50905067ffffffffffffffff811615801590610424575060045460015f9054906101000a90046001600160a01b03166001600160a01b0316630a3df2af6040518163ffffffff1660e01b8152600401602060405180830381865afa1580156103fe573d5f803e3d5ffd5b505050506040513d601f19601f82011682018060405250810190610422919061095c565b135b156104845760405160016024820181905260448201526311deca7960e01b906064015b60408051601f198184030181529190526020810180516001600160e01b03166001600160e01b031990931692909217909152600194909350915050565b67ffffffffffffffff8116156104b557604051600160248201525f60448201526311deca7960e01b90606401610447565b60045460015f9054906101000a90046001600160a01b03166001600160a01b0316630a3df2af6040518163ffffffff1660e01b8152600401602060405180830381865afa158015610508573d5f803e3d5ffd5b505050506040513d601f19601f8201168201806040525081019061052c919061095c565b1315610566576040805160048152602481019091526020810180516001600160e01b03166312878bfd60e31b179052600193509150509091565b6003546001546040516370a0823160e01b81526001600160a01b039091166004820152737f39c581f595b53c5cb19bd0b3f8da6c935e2ca0906370a0823190602401602060405180830381865afa1580156105c3573d5f803e3d5ffd5b505050506040513d601f19601f820116820180604052508101906105e7919061095c565b1115610621576040805160048152602481019091526020810180516001600160e01b03166312878bfd60e31b179052600193509150509091565b505060408051602081019091525f80825292909150565b5f8060015f9054906101000a90046001600160a01b03166001600160a01b0316630a3df2af6040518163ffffffff1660e01b8152600401602060405180830381865afa15801561068a573d5f803e3d5ffd5b505050506040513d601f19601f820116820180604052508101906106ae919061095c565b600254121592915050565b6106c16107f9565b6001600160a01b0381166106ef57604051631e4fbdf760e01b81525f60048201526024015b60405180910390fd5b6106f881610825565b50565b5f60605f60015f9054906101000a90046001600160a01b03166001600160a01b03166301919ac86040518163ffffffff1660e01b81526004016040805180830381865afa15801561074e573d5f803e3d5ffd5b505050506040513d601f19601f82011682018060405250810190610772919061090d565b50905067ffffffffffffffff8116156107b85750506040805160048152602481019091526020810180516001600160e01b031663138314cd60e11b179052600192909150565b6107c0610638565b15610621576040805160048152602481019091526020810180516001600160e01b0316630fed477960e21b179052600193509150509091565b5f546001600160a01b0316331461031b5760405163118cdaa760e01b81523360048201526024016106e6565b5f80546001600160a01b038381166001600160a01b0319831681178455604051919092169283917f8be0079c531659141344cd1fd0a4f28419497f9722a3daafe3b4186f6b6457e09190a35050565b5f60208284031215610884575f80fd5b5035919050565b82151581525f602060408184015283518060408501525f5b818110156108bf578581018301518582016060015282016108a3565b505f606082860101526060601f19601f830116850101925050509392505050565b5f602082840312156108f0575f80fd5b81356001600160a01b0381168114610906575f80fd5b9392505050565b5f806040838503121561091e575f80fd5b825167ffffffffffffffff81168114610935575f80fd5b60208401519092506001600160c01b0381168114610951575f80fd5b809150509250929050565b5f6020828403121561096c575f80fd5b505191905056fea26469706673582212209b019b6c0b940aed30f4cfbd8d838f8ad7b535c1d025112ab87f085b8fad003a64736f6c63430008140033",
    "linkReferences": {}
  },
  "methodIdentifiers": {
    "AURA()": "3829aea3",
    "BAL()": "beeadf16",
    "D2D()": "842febba",
    "D2D_USDC_BPT()": "8e24dcea",
    "USDC()": "89a30271",
    "WETH()": "ad5c4648",
    "checkAndReturnCalldata()": "f6e5807a",
    "checkBalanceAndReturnCalldata()": "92c4b61d",
    "checkCondition()": "c7af71da",
    "crvUSD()": "9bec8288",
    "investThreshold()": "9c7e40a9",
    "leverageStrategy()": "33d1dbe3",
    "owner()": "8da5cb5b",
    "reinvestThreshold()": "5af7282b",
    "renounceOwnership()": "715018a6",
    "setInvestThreshold(uint256)": "57beada2",
    "setReinvestThreshold(int256)": "564acb96",
    "setUnwindThreshold(int256)": "1f4a012b",
    "transferOwnership(address)": "f2fde38b",
    "unwindThreshold()": "81296f51",
    "wstETH()": "4aa07e64"
  },
  "id": 0
}